:020000020000FC
:080000000C9430000C94820006
:10005C000C94890021E0442731E06627772722247D
:10006C000FEF0DBF01E20EBF0FEF00BB01B9002770
:10007C0001BB02B908E307D120D13BD108E303D17E
:10008C001CD12ED108E3FFD018D108E3FCD015D138
:10009C0008E0F9D012D101E0F6D00FD106E0F3D090
:1000AC000CD10EE0F0D009D100E004BD01E005BD9B
:1000BC0001E000936E00002703BB0FEF04BB02E0CE
:1000CC00009369000DB301600DBB08E000930A01B9
:1000DC000027009329010AE20093280101E0009314
:1000EC00210101E80093200178940FEE07B90FEF7E
:1000FC0004B905B90C94A00009D108D1339534305A
:10010C0009F432E018950FEF021521F423952430F1
:10011C0009F421E00FEF601761F49099409A9099DF
:10012C00419A9099429A909B4098909B4198909BB1
:10013C004298189502E5B2D0C0D005E6AFD0BDD03C
:10014C0001E6ACD0BAD004E6A9D0B7D009E7A6D066
:10015C00B4D00EE2A3D0B1D00EE2A0D0AED00EE25D
:10016C009DD0ABD0213039F4409A4198429801E3AC
:10017C0095D0A3D00FC0223039F44098419A4298C0
:10018C0002E38CD09AD006C040984198429A03E37F
:10019C0085D093D03230F1F70FEF202E01E073D0E1
:1001AC008CD003E57BD089D004E778D086D001E6EB
:1001BC0075D083D002E772D080D004E76FD07DD0A9
:1001CC000EE26CD07AD00EE269D077D00EE266D017
:1001DC0074D0439A6FEF3330F1F7222401E053D0FF
:1001EC006CD007E45BD069D005E758D066D005E643
:1001FC0055D063D003E752D060D003E74FD05DD029
:10020C000EE24CD05AD00EE249D057D00EE246D076
:10021C0054D04398449A4598469A479A71E00FEF08
:10022C000A95F1F7349B16C0449A459A4698479A1A
:10023C0072E00FEF0A95F1F7349B0CC0449A459A83
:10024C00469A479873E00FEF0A95F1F7349B02C07A
:10025C000C9410016627213039F4409A4198429849
:10026C0001E31CD02AD00FC0223039F44098419AB7
:10027C00429802E313D021D006C040984198429A8C
:10028C0003E30CD01AD001BB0000169A000000004A
:10029C0000001698000000000000089501BB179A9A
:1002AC00000000000000169A0000000000001698E4
:1002BC00000000000000179808950F93002700BB62
:1002CC0001BB159A0000169A0000000000000FB147
:1002DC00169807FDF7CF15980FEF00BB0F910895F7
:1002EC008F939F939FE08CE90197F1F79F918F91EA
:1002FC000895F6DFF5DFF4DFF3DFF2DF0895F9DFC1
:10030C00F8DFF7DFF6DFF5DFF4DF0895F8DFF7DF6E
:08031C00F6DFF5DFF4DF0895C0
:00000001FF
