:020000020000FC
:080000000C9430000C94A800E0
:10005C000C94EE0121E044273327662777272224CE
:10006C000FEF0DBF01E20EBF0FEF00BB01B9002770
:10007C0001BB02B908E3C8D1E1D1FCD108E3C4D17A
:10008C00DDD1EFD108E3C0D1D9D108E3BDD1D6D1B0
:10009C0008E0BAD1D3D101E0B7D1D0D106E0B4D1C8
:1000AC00CDD10EE0B1D1CAD102E5B9D1C7D105E6A7
:1000BC00B6D1C4D101E6B3D1C1D104E6B0D1BED121
:1000CC0009E7ADD1BBD10EE2AAD1B8D10EE2A7D1CE
:1000DC00B5D10EE2A4D1B2D100E004BD01E005BD62
:1000EC0001E000936E00002703BB0FEF04BB02E09E
:1000FC00009369000DB301600DBB08E000930A0189
:10010C000027009329010AE20093280101E00093E3
:10011C00210101E80093200178940FEE07B90FEF4D
:10012C0004B9213021F4409A4198429809C02230F8
:10013C0021F44098419A429803C040984198429AC1
:10014C000C940502513011F00C94C80130953F3FCE
:10015C0011F40C94A601222401E056D16FD107E4CE
:10016C005ED16CD105E75BD169D105E658D166D17A
:10017C0003E755D163D103E752D160D10EE24FD1E1
:10018C005DD10EE24CD15AD10EE249D157D14398F0
:10019C009099409A9099419A9099429A909B409844
:1001AC00909B4198909B4298449A4598469A479ABE
:1001BC0071E00FEF0A95F1F7349B2EC09099409A9D
:1001CC009099419A9099429A909B4098909B419813
:1001DC00909B4298449A459A4698479A72E00FEF42
:1001EC000A95F1F7349B18C09099409A9099419ACE
:1001FC009099429A909B4098909B4198909B4298E2
:10020C00449A459A469A479873E00FEF0A95F1F78E
:10021C00349B02C00C94CE006627213021F4409A06
:10022C004198429809C0223021F44098419A429852
:10023C0003C040984198429A271709F047C043954C
:10024C00142FAA27BB27CC2701E0DED0F7D003E57B
:10025C00E6D0F4D003E6E3D0F1D00FE6E0D0EED058
:10026C0002E7DDD0EBD005E6DAD0E8D00AE3D7D050
:10027C00E5D0143620F0145601E0A00FFACF1A3056
:10028C0020F01A5001E0B00FFACFC12F00E3A00FFD
:10029C00B00FC00F0A2FC3D0D1D00B2FC0D0CED0EF
:1002AC000C2FBDD0CBD00FEF05B9F1D000E005B9C4
:1002BC00EED00FEF05B9EBD000E005B9E8D00FEFA9
:1002CC0005B9E5D000E005B9E2D05BC04130B1F131
:1002DC00A8F14A95142FAA27BB27CC2701E094D06C
:1002EC00ADD003E59CD0AAD003E699D0A7D00FE6F9
:1002FC0096D0A4D002E793D0A1D005E690D09ED0A2
:10030C000AE38DD09BD0143620F0145601E0A00FD8
:10031C00FACF1A3020F01A5001E0B00FFACFC12FEB
:10032C0000E3A00FB00FC00F0A2F79D087D00B2F8E
:10033C0076D084D00C2F73D081D023C00C94C901FB
:10034C00A6D0A5D00FEF202E01E05ED077D003E52C
:10035C0066D074D004E763D071D001E660D06ED063
:10036C0002E75DD06BD004E75AD068D00EE257D0CC
:10037C0065D00EE254D062D00EE251D05FD0439AD9
:10038C006FEF5527189501E03FD058D007E447D0C0
:10039C0055D001E444D052D00DE441D04FD005E407
:1003AC003ED04CD000E23BD049D00FE438D046D000
:1003BC0006E535D043D005E432D040D002E52FD04D
:1003CC003DD001E22CD03AD068D055270C943000A7
:1003DC000FEF021521F42395243009F421E00FEFDF
:1003EC00601761F49099409A9099419A9099429A29
:1003FC00909B4098909B4198909B429818955130B7
:10040C0011F045D051E0FBCF01BB0000169A000063
:10041C00000000001698000000000000089501BBC9
:10042C00179A000000000000169A0000000000005F
:10043C001698000000000000179808950F930027ED
:10044C0000BB01BB159A0000169A000000000000CA
:10045C000FB1169807FDF7CF15980FEF00BB0F9152
:10046C0008958F939F939FE08CE90197F1F79F91EB
:10047C008F910895F6DFF5DFF4DFF3DFF2DF0895F7
:10048C00F9DFF8DFF7DFF6DFF5DFF4DF0895F8DFEB
:10049C00F7DFF6DFF5DFF4DF0895F9DFF8DFF7DFDC
:1004AC00F6DFF5DFF4DFECDFEBDFEADFE3DFE2DFE3
:0204BC000895A1
:00000001FF
