:020000020000FC
:1000000033244424662740EF40BB4FEF47B948B93B
:100010003FEE11271430E1F331BB4FEF4A95F1F772
:100020004FEF4A95F1F74FB14F704F3059F021E043
:100030000027043039F0542F522341F00395220F4A
:100040000C941900330F13950C940A001330B9F077
:100050000330B9F0402F440F400F410F43956030FB
:1000600039F49AE0939D040E302C38B80C94580063
:100070009AE0949D040E402C48B80C9458000C94BF
:100080000800103041F0113049F0349C0C94DD0030
:1000900008B80C94630160950C94080040E060304F
:1000A00039F79AE0939D040E302C38B80C94580020
:1000B00090E0911511F40C94080090E098B97FEF4E
:1000C0008FEFA1E055246624772475158605A705D2
:1000D00031F091E0590E90E0691E791EF6CF9FEF46
:1000E00098B97FEF8FEFA1E055246624772475152A
:1000F0008605A70531F091E0590E90E0691E791E42
:10010000F6CF90E098B97FEF8FEFA1E055246624F9
:10011000772475158605A70531F091E0590E90E01A
:10012000691E791EF6CF9FEF98B97FEF8FEFA1E0A0
:1001300055246624772475158605A70531F091E0CE
:10014000590E90E0691E791EF6CF90E098B97FEFC6
:100150008FEFA1E055246624772475158605A70541
:1001600031F091E0590E90E0691E791EF6CF9FEFB5
:1001700098B97FEF8FEFA1E0552466247724751599
:100180008605A70531F091E0590E90E0691E791EB1
:10019000F6CF90E098B97FEF8FEFA1E05524662469
:1001A000772475158605A70531F091E0590E90E08A
:1001B000691E791EF6CF0C94630190E0911519F435
:1001C00008B80C94630190E098B97FEF8FEFA1E03D
:1001D00055246624772475158605A70531F091E02E
:1001E000590E90E0691E791EF6CF9FEF98B97FEF08
:1001F0008FEFA1E055246624772475158605A705A1
:1002000031F091E0590E90E0691E791EF6CF90E032
:1002100098B97FEF8FEFA1E05524662477247515F8
:100220008605A70531F091E0590E90E0691E791E10
:10023000F6CF9FEF98B97FEF8FEFA1E055246624AA
:10024000772475158605A70531F091E0590E90E0E9
:10025000691E791EF6CF90E098B97FEF8FEFA1E08D
:1002600055246624772475158605A70531F091E09D
:10027000590E90E0691E791EF6CF9FEF98B97FEF77
:100280008FEFA1E055246624772475158605A70510
:1002900031F091E0590E90E0691E791EF6CF90E0A2
:1002A00098B97FEF8FEFA1E0552466247724751568
:1002B0008605A70531F091E0590E90E0691E791E80
:0A02C000F6CF0C9463010C94630167
:00000001FF
