:020000020000FC
:1000000070EF70BB7FEF77B978B9EE24FF246AE018
:10001000A0E2BEE47727992788278A179B0718F460
:1000200001960000FACF7C3320F473959927882736
:10003000F4CFCC27CF3FD1F13FEE11271430D1F3CD
:1000400031BB7FEF7A95F1F77FB17F707F3059F048
:1000500021E00027043039F0572F522341F0039557
:10006000220F0C942A00330F13950C941E001330AA
:1000700061F0033071F0402F440F400F410F4F5F8C
:100080000C94530040E00C9453004AE0400F0C9451
:100090005300103029F01130A9F343E20C945300BF
:1000A0004AE20C945300CFEF0C941C00433209F247
:1000B0004A3259F0E69E712D703011F00C94D10047
:1000C000E02CE40EE8B80C941900CC27CF3FD1F116
:1000D0003FEE11271430D1F331BB7FEF7A95F1F762
:1000E0007FB17F707F3059F021E00027043039F074
:1000F000572F522341F00395220F0C947600330FB3
:1001000013950C946A00133061F0033071F0402FA6
:10011000440F400F410F4F5F0C949F0040E00C9440
:100120009F004AE0400F0C949F00103029F01130DE
:10013000A9F343E20C949F004AE20C949F00CFEF96
:100140000C9468004A3209F24332E1F0F69E712DB8
:10015000703011F00C94D100F02CF40EF8B8A0E23D
:10016000BEE47727992788278A179B0718F40196FA
:100170000000FACF7C3320F4739599278827F4CFB9
:100180000C946500EF9C13F40C94D100712D703029
:1001900011F00C94D100E02CE8B8FF24EE240C946C
:1001A00019007FEF78B9A0E2BEE477279927882766
:1001B0008A179B0718F401960000FACF7C3320F4CD
:1001C000739599278827F4CF70E078B9A0E2BEE450
:1001D0007727992788278A179B0718F4019600002C
:1001E000FACF7C3320F4739599278827F4CF7FEFDB
:1001F00078B9A0E2BEE47727992788278A179B075A
:1002000018F401960000FACF7C3320F473959927F7
:100210008827F4CF70E078B9A0E2BEE47727992769
:1002200088278A179B0718F401960000FACF7C33C1
:1002300020F4739599278827F4CF7FEF78B9A0E24F
:10024000BEE47727992788278A179B0718F4019619
:100250000000FACF7C3320F4739599278827F4CFD8
:1002600070E078B9A0E2BEE47727992788278A173B
:100270009B0718F401960000FACF7C3320F47395A5
:0C02800099278827F4CF0C940000FFCFD2
:00000001FF
