:020000020000FC
:080000000C9430000C94660022
:10005C000C946C00AA2722270FEF0DBF01E20EBFF4
:10006C000FEF00BB01B9002701BB02B908E356D062
:10007C006FD08AD008E352D06BD07DD008E34ED03D
:10008C0067D008E34BD064D009E048D061D001E0E0
:10009C0045D05ED006E042D05BD00FE03FD058D0C8
:1000AC0012E0109369001DB311601DBB10E014BD6C
:1000BC0013E015BD11E010936E0078940C9493002E
:1000CC00A395A43011F42395AA2718950196883E80
:1000DC0019F5933009F501E021D03AD030E34427EB
:1000EC0055276627243618F043952456FBCF2A3023
:1000FC0018F02A505395FBCF622F430F530F630F09
:10010C00042F17D025D0052F14D022D0062F11D0B4
:10011C001FD02227992788271895FFCF01BB0000F5
:10012C00169A000000000000169800000000000065
:10013C00089501BB179A000000000000169A0000F9
:10014C0000000000169800000000000017980895A9
:10015C000F93002700BB01BB159A0000169A0000F4
:10016C00000000000FB1169807FDF7CF15980FEFA0
:10017C0000BB0F9108958F939F939FE08CE901979B
:10018C00F1F79F918F910895F6DFF5DFF4DFF3DF40
:04019C00F2DF0895F1
:00000001FF
