:020000020000FC
:0200000003C03B
:100004000C94120021E011273F9A5098589A02E06C
:10001400009369000DB301600DBB78940C945500F6
:1000240010951F3F11F0479801C0479A4CD04BD010
:100034004AD049D048D047D046D045D044D043D008
:1000440042D041D040D03FD03ED03DD03CD03BD038
:100054003AD039D038D037D036D035D034D033D068
:1000640032D031D030D02FD02ED02DD02CD02BD098
:100074002AD029D028D027D026D025D024D023D0C8
:1000840022D021D020D01FD01ED01DD01CD01BD0F8
:100094001AD019D018D017D016D015D014D013D028
:1000A40012D011D01895FFCF8F939F939FE08CE9C6
:1000B4000197F1F79F918F910895F6DFF5DFF4DF53
:1000C400F3DFF2DF0895F9DFF8DFF7DFF6DFF5DFBE
:0400D400F4DF0895B8
:00000001FF
