:020000020000FC
:1000000070EF77B988270FEF0DBF01E20EBF0FEF3A
:1000100000BB01B9002701BB02B908E369D082D057
:100020009DD008E365D07ED090D008E361D07AD02F
:1000300008E35ED077D009E05BD074D001E058D0FF
:1000400071D006E055D06ED00FE052D06BD0AA2709
:10005000AF3FE1F14FEE22272430D1F348B97FEFD3
:100060007A95F1F776B17F707F3059F031E0112742
:10007000143039F0672F632341F01395330F0C943C
:100080003800440F23950C942C00233071F013306A
:1000900081F0512F550F510F520F5F5F90E3590FB1
:1000A0000C94630050E30C94630051E4510F0C94E2
:1000B0006300203029F02130A9F353E20C9463004F
:1000C0005AE20C946300AFEF0C942A00052F1BD06A
:1000D00029D08395803119F400EC0AD023D08032E6
:1000E00021F4882701E004D01DD00C942700FFCF15
:1000F00001BB0000169A00000000000016980000E6
:1001000000000000089501BB179A000000000000E5
:10011000169A000000000000169800000000000081
:10012000179808950F93002700BB01BB159A000094
:10013000169A0000000000000FB1169807FDF7CFD7
:1001400015980FEF00BB0F9108958F939F939FE039
:100150008CE90197F1F79F918F910895F6DFF5DF14
:08016000F4DFF3DFF2DF089584
:00000001FF
