:020000020000FC
:080000000C9430000C94A600E2
:10005C000C94DA00222431E0442755270FEF0DBF12
:10006C0001E20EBF0FEF00BB01B9002701BB02B9C3
:10007C0008E3B6D0CFD0EAD008E3B2D0CBD0DDD0F5
:10008C0008E3AED0C7D008E3ABD0C4D008E0A8D00A
:10009C00C1D001E0A5D0BED006E0A2D0BBD00EE00E
:1000AC009FD0B8D002E5A7D0B5D005E6A4D0B2D089
:1000BC0001E6A1D0AFD004E69ED0ACD009E79BD02E
:1000CC00A9D00EE298D0A6D00EE295D0A3D00EE225
:1000DC0092D0A0D021E000E004BD03E005BD01E01A
:1000EC0000936E00002703BB0FEF04BB02E00093EC
:1000FC0069000DB301600DBB0027009329010AE1D3
:10010C000093280101E00093210101E800932001F4
:10011C00789408EF00930A010FEF04B905B9213068
:10012C0021F400E800930B0109C0223021F400E413
:10013C0000930B0103C000E200930B010C94E00050
:10014C00313089F540954F3F69F001E049D062D0DC
:10015C0003E351D05FD00EE24ED05CD000E00093B0
:10016C000B0120C001E03CD055D003E544D052D067
:10017C0004E741D04FD001E63ED04CD004E73BD051
:10018C0049D005E738D046D003E735D043D002E359
:10019C0032D040D00EE22FD03DD000E100930B01C5
:1001AC000FEF202E3327189501E0200F243009F48F
:1001BC0021E01895313021F056D055D054D031E093
:1001CC000FEF201661F4909900EF0000909B00E176
:1001DC000000403009F40F7E00930B01F1CFEACF01
:1001EC0001BB0000169A00000000000016980000E9
:1001FC0000000000089501BB179A000000000000E9
:10020C00169A000000000000169800000000000084
:10021C00179808950F93002700BB01BB159A000097
:10022C00169A0000000000000FB1169807FDF7CFDA
:10023C0015980FEF00BB0F9108958F939F939FE03C
:10024C008CE90197F1F79F918F910895F6DFF5DF17
:10025C00F4DFF3DFF2DF0895F9DFF8DFF7DFF6DF25
:10026C00F5DFF4DF0895F8DFF7DFF6DFF5DFF4DF15
:02027C000895E3
:00000001FF
